:100000000C94C9000C94F1000C94F1000C94F100D4
:100010000C94F1000C94F1000C94F1000C94F1009C
:100020000C94F1000C94F1000C94F1000C94F1008C
:100030000C94F1000C94F1000C94F1000C94F1007C
:100040000C94410F0C94F1000C940F0F0C94E90EDA
:100050000C94F1000C94F1000C94F1000C94F1005C
:100060000C94F1000C94F10000010800060400015A
:1000700000504F535420244620485454502F312EC2
:10008000300D0A486F73743A2024460D0A24462422
:10009000534163636570743A202A2F2A0D0A436F17
:1000A0006E74656E742D4C656E6774683A202444D6
:1000B0000D0A436F6E74656E742D547970653A2025
:1000C0006170706C69636174696F6E2F782D7777DA
:1000D000772D666F726D2D75726C656E636F6465DA
:1000E000640D0A0D0A245300474554202446245326
:1000F00020485454502F312E300D0A486F73743AF3
:100100002024460D0A24460D0A0D0A0045000082EF
:10011000000040002000000000240027002A00000A
:10012000000000250028002B00000000002300260E
:10013000002900040404040404040402020202026C
:10014000020303030303030102040810204080019B
:10015000020408102001020408102000000008001A
:10016000020100000304070000000000000000413D
:1001700063636570743A20746578742F68746D6C6D
:10018000006D6F747932322E636F2E756B002F0005
:100190008B0F11241FBECFEFD8E0DEBFCDBF12E022
:1001A000A0E0B1E0ECEAFDE202C005900D92A236BB
:1001B000B107D9F727E0A2E6B2E001C01D92AF3C3B
:1001C000B207E1F710E0C9ECD0E004C02197FE01CE
:1001D0000E94BE13C83CD107C9F70E94B80F0C9407
:1001E000D4160C940000CF93DF932091AC06222309
:1001F000C1F0FC0120812223A1F0CCEAD6E0A8EADC
:10020000B6E09C012C5F3F4F899141919D918427DD
:10021000892339F4E217F307B9F781E0DF91CF9131
:10022000089580E0FBCFAF92BF92CF92DF92EF9222
:10023000FF920F931F93CF93DF936C017B018B0190
:10024000040F151FEB015E01AE18BF08C017D107E0
:1002500059F06991D601ED91FC910190F081E02D6A
:10026000C6010995892B79F7C501DF91CF911F91BF
:100270000F91FF90EF90DF90CF90BF90AF900895D7
:10028000FC01538D448D252F30E0842F90E0821B9C
:10029000930B541710F0CF96089501970895FC0121
:1002A000918D828D981761F0A28DAE0FBF2FB11D79
:1002B0005D968C91928D9F5F9F73928F90E00895D1
:1002C0008FEF9FEF0895FC01918D828D981731F08B
:1002D000828DE80FF11D858D90E008958FEF9FEFDF
:1002E0000895FC01918D228D892F90E0805C9F4FB5
:1002F000821B91098F739927089582E397E00E94EA
:10030000710121E0892B09F420E0822F089580E01B
:1003100090E0892B29F00E947D0181110C9400004E
:100320000895FC01A48DA80FB92FB11DA35ABF4F8A
:100330002C91848D90E001968F739927848FA689E4
:10034000B7892C93A089B1898C91837080648C9338
:10035000938D848D981306C00288F389E02D8081E7
:100360008F7D80830895EF92FF920F931F93CF9319
:10037000DF93EC0181E0888F9B8D8C8D98131AC0E0
:10038000E889F989808185FF15C09FB7F894EE89C7
:10039000FF896083E889F989808183708064808324
:1003A0009FBF81E090E0DF91CF911F910F91FF906F
:1003B000EF900895F62E0B8D10E00F5F1F4F0F7317
:1003C0001127E02E8C8D8E110CC00FB607FCFACFD2
:1003D000E889F989808185FFF5CFCE010E949101DE
:1003E000F1CFEB8DEC0FFD2FF11DE35AFF4FF082A3
:1003F0009FB7F8940B8FEA89FB8980818062CFCF09
:10040000CF93DF93EC01888D8823B9F0AA89BB894B
:10041000E889F9898C9185FD03C0808186FD0DC036
:100420000FB607FCF7CF8C9185FFF2CF808185FF57
:10043000EDCFCE010E949101E9CFDF91CF910895D8
:10044000833081F028F4813099F08230A9F008954A
:100450008730A9F08830C9F08430B1F480918000F1
:100460008F7D03C0809180008F77809380000895F6
:1004700084B58F7784BD089584B58F7DFBCF80913F
:10048000B0008F778093B00008958091B0008F7D89
:10049000F9CFCF93DF93282F30E0F901E55AFE4FD3
:1004A0008491F901E95BFE4FD491F901ED5CFE4FB7
:1004B000C491CC23A1F081110E942002EC2FF0E026
:1004C000EE0FFF1FE75DFE4FA591B491EC91ED2378
:1004D00081E090E009F480E0DF91CF91089580E021
:1004E00090E0FACF1F93CF93DF93282F30E0F901EC
:1004F000E55AFE4F8491F901E95BFE4FD491F90171
:10050000ED5CFE4FC491CC23A9F0162F81110E94FF
:100510002002EC2FF0E0EE0FFF1FE15EFE4FA591F1
:10052000B4918FB7F894EC91111108C0D095DE23E7
:10053000DC938FBFDF91CF911F910895DE2BF8CF11
:10054000CF93DF9390E0FC01E95BFE4F24918D5C3B
:100550009E4FFC0184918823D1F090E0880F991F71
:10056000FC01EB5EFE4FA591B491FC01E15EFE4FF4
:10057000C591D49161110EC09FB7F8948C91E22F70
:10058000E0958E238C932881E223E8839FBFDF913F
:10059000CF9108958FB7F894EC91E22BEC938FBF35
:1005A000F6CF3FB7F8948091920390919303A09176
:1005B0009403B091950326B5A89B05C02F3F19F071
:1005C0000196A11DB11D3FBFBA2FA92F982F8827D3
:1005D000BC01CD01620F711D811D911D42E0660FAE
:1005E000771F881F991F4A95D1F708958F929F9280
:1005F000AF92BF92CF92DF92EF92FF924B015C01DC
:100600000E94D1026B017C010E94D1026C197D090C
:100610008E099F09683E734081059105A8F321E08A
:10062000821A9108A108B10888EEC80E83E0D81E8E
:10063000E11CF11C81149104A104B10429F7FF907D
:10064000EF90DF90CF90BF90AF909F908F900895E4
:100650002FB7F89460918E0370918F03809190036F
:10066000909191032FBF08958091D8039091D90361
:1006700098278927982744972091F60330E044E093
:10068000359527954A95E1F7220F331F220F331F27
:10069000821B930B97FF02C090E080E008952091A9
:1006A000EC033091EA033093EC032093EA032091AA
:1006B000ED033091EB033093ED032093EB03E8EC73
:1006C000F3E021A5820F911D25A585A7662381F062
:1006D00021A7892F9927319723E0E43CF20789F776
:1006E0001092FA031092FB0380E58093F6030895BD
:1006F00011A6EFCF0F931F93CF93DF9370E0685352
:100700007C4F8A01075F1F4F213029F0223031F4DE
:100710008A010250110930E020E003C000E010E03F
:100720009801EB01FA01E230F10558F0A991B99175
:10073000BA27AB27BA270A0F1B1F211D311D32977D
:10074000F2CFFA01EE7F6E0F7F1F4E175F0769F041
:10075000FB01408150E070E060E0762F652F542F60
:100760004427040F151F261F371FA9016627772767
:10077000411551056105710519F022273327F1CF85
:1007800000951095E82FF0E0E853FC4F10830183AB
:10079000DF91CF911F910F910895E8ECF3E0108E57
:1007A000118E80E4848B158A868B20E044E150E032
:1007B0006EE088E10C947A03DC011696ED91FC91D1
:1007C00017979F012F5F3F4F17963C932E931697D5
:1007D000608381E090E008958EBD0DB407FEFDCFEB
:1007E000089561E0809196030E94720278940895C2
:1007F000F89460E0809196030C947202EF92FF925D
:100800000F931F93CF93DF938C017B010E94F8031A
:100810008AE70E94EC03E7010E0D1F1DC017D107E8
:1008200021F089910E94EC03F9CFDF91CF911F91C4
:100830000F91FF90EF900C94F103EF92FF920F93C2
:100840001F93CF93DF938C017B010E94F8038AE30F
:100850000E94EC03E7010E0D1F1DC017D10731F0F8
:1008600080E00E94EC038EB58993F7CFDF91CF91A2
:100870001F910F91FF90EF900C94F1031F93CF9372
:10088000DF93182FC62FD42F0E94F8038C2F8F715F
:10089000812B0E94EC038D2F0E94EC03DF91CF91FE
:1008A0001F910C94F103CF93C82FC07680917B03E6
:1008B0008C1799F043E06FE180EA0E943E04C093F8
:1008C0007B034C2F50E085E0559547958A95E1F7DD
:1008D0006FE180E8CF910C943E04CF910895CF93BF
:1008E000DF93C82FD62F0E9453044D2F6C2F80E426
:1008F000DF91CF910C943E04CF93DF93C82FD72F75
:100900000E946F046D2F81E08C0FDF91CF910C94CA
:100910006F04CF93C82F0E9453040E94F8038C2FBA
:100920008F710E94EC0380E00E94EC03C7FF03C0BC
:1009300080E00E94EC03CEB50E94F1038C2FCF9192
:100940000895EF92FF920F931F93CF93DF9300D000
:1009500000D000D0CDB7DEB789E30E94890410E053
:1009600000E0882309F441C060917C0370917D030D
:1009700080E00E947C04BE016F5F7F4F86E090E0C4
:100980000E941D04E980FA80F0927D03E0927C03CE
:100990008D819E818C010078112787FF12C08B8189
:1009A0009C810497009197031091980301501109BD
:1009B0008017910708F48C0168EC73E0C8010E946D
:1009C0001D04F801E853FC4F10826FEF7BE0E11447
:1009D000F10419F0B701615071098CE00E947C04A8
:1009E00040E46EE180E80E943E04C80126960FB6FE
:1009F000F894DEBF0FBECDBFDF91CF911F910F9155
:100A0000FF90EF900895CF93DF93EC0140E86FE102
:100A100080E80E943E0440E86FE180EA0E943E04C4
:100A20004AE06CE180EA0E943E0460E07CE082E003
:100A30000E947C04BE01745F86E00E947C0440E05A
:100A400060E08AE70E943E0468EC73E0CE010E94F9
:100A5000FE0348E06FE180E80E943E04D0E0C0E081
:100A60008CE10E9489048A7029F42196C83E83E0B3
:100A7000D807B1F78CE10E94890481FD03C0C83E0C
:100A8000D34039F448E06FE180EADF91CF910C94D4
:100A90003E04DF91CF9108950F931F93CF93DF937F
:100AA000EC0108EC13E04C96F801908B818B0E94CE
:100AB000CD03CE010896F80196A387A3AE01405F4F
:100AC0005F4F21E06AE188E20E947A03CE018A96B4
:100AD000DF91CF911F910F910C94030561E184ED9B
:100AE0000E946F0461E082ED0E946F048AEE0E9412
:100AF000890480FDFBCF60E082ED0E946F0489EDE8
:100B00000E94890482FB882780F90895CF92DF92A2
:100B1000EF92FF920F931F938634910568F1209115
:100B2000EB03233449F5C090F603D090F703E0902F
:100B3000F803F090F90300916B0310916C0320917E
:100B40006D0330916E03C016D106E206F306A1F4E0
:100B5000E2EEF4E088539C4F9F012E5F3F4F4181AE
:100B60005081553319F45281651771F0F901E40F82
:100B7000F11DE817F90780F380E01F910F91FF90B6
:100B8000EF90DF90CF90089581E0F7CFE09164037C
:100B9000F09165039F012F5F3F4F309365032093D2
:100BA0006403808308950F931F93CF93C82F8B0105
:100BB000C15030F0F80181918F010E94C605F8CF35
:100BC000CF911F910F910895CF93DF93EC01FB011B
:100BD0008A30910548F06AE070E00E947D13CB01F5
:100BE000BF010E94E405FC01CE016AE070E00E94B2
:100BF0007D13805D80831182CF010196DF91CF91BB
:100C00000895089590E080E00895FB010190002090
:100C1000E9F73197AF01461B570B0C941301CF93A3
:100C2000DF93BC0182E397E00E940506EC0163E6D6
:100C300071E082E397E00E9405068C0F9D1FDF9113
:100C4000CF910895CF93DF939091F006981781F19B
:100C5000C82F20E4929FC0011124BC017E5E813C1C
:100C60009D4048F482E00E947C0460EB76E080E4E2
:100C700090E00E94FE0380913107C81303C08FEFFC
:100C800080933107C093F00680E4C89FE0011124EF
:100C9000BE017E5EC13CDD4058F480E00E947C04D1
:100CA00060EB76E080E490E0DF91CF910C941D043E
:100CB000DF91CF9108950F931F93CF93DF93EC01B2
:100CC000162F8E810E942206E091EE0681E08E0FA3
:100CD000F0E0E055F94F10838F3348F48093EE062F
:100CE00081E090E0DF91CF911F910F910895E9E9A4
:100CF000F3E030E020E0822F91919923B1F170E090
:100D000060E0492F50E0A62F8A01062E02C01595FB
:100D100007950A94E2F700FF23C027563C4F41E0B5
:100D200050E060E070E00A2E04C0440F551F661FBB
:100D3000771F0A94D2F740954923F9014083880F21
:100D4000880F880F8A0F8093EF068E830E942206F9
:100D50001092EF061092EE068C818F5F8C83C0CFCD
:100D60006F5F7F4F6830710571F62F5F3F4F203204
:100D7000310509F680E0E7CF8F929F92AF92BF9244
:100D8000CF92DF92EF92FF921F93CF93DF93CDB775
:100D9000DEB7A1970FB6F894DEBF0FBECDBFD62E3B
:100DA000172FBC0182E397E00E940506ED2CF12E7F
:100DB00010E08AE0882E912CA12CB12CF701219112
:100DC0007F0130E050E040E019A26E01F1E2CF0E69
:100DD000D11CCA01B901A50194010E949113605D63
:100DE000F60162936F01211531054105510589F71F
:100DF000309729F0BF0182E397E00E940506133087
:100E000029F06EE282E397E00E94B3011F5F143085
:100E1000A9F663E671E082E397E00E940506A196D9
:100E20000FB6F894DEBF0FBECDBFDF91CF911F91FB
:100E3000FF90EF90DF90CF90BF90AF909F908F90FA
:100E40000895CF93DF93EB0186E691E00E940F06B1
:100E5000C853DC4FFE01E45DFE4F1082D093630364
:100E6000C093620388E791E00E940F0680916303BC
:100E70008F93809162038F9387E891E09F938F9384
:100E800082E692E09F938F930E94FC130F900F9045
:100E90000F900F900F900F9082E692E0DF91CF912C
:100EA0000C940F06DC0196E0FB0101900D929A95DF
:100EB000E1F70895BC0188EC93E00E94520760ECD2
:100EC00073E08EEC93E00C945207DC0194E0FB019C
:100ED00001900D929A95E1F708958EEC93E00E94AF
:100EE0005A0762EE73E086EE93E00E9465076CEAB3
:100EF00076E082EE93E00E9465070C94CD03262FE6
:100F000020612093F703643021F0009711F481E011
:100F100090E061E00E944F031092D80388E2809332
:100F2000D9030E946D0784E08093F8031092F903BF
:100F300022E04CE150E06AE182E30E947A0386E31A
:100F400090E00C940305CF93DF93EB010E945A07C6
:100F5000BE0186EE93E00E9465076CEA76E082EEC1
:100F600093E0DF91CF910C946507CF93DF93EB0172
:100F700044E050E0BC0184EE93E00E94D313892B3F
:100F800049F46EED73E0CE010E94520781E0DF91DB
:100F9000CF91089580E0FBCF0F931F93CF938C01E7
:100FA0008BE491E00E945A07E8ECF3E088E0848744
:100FB000C6E0C58748E050E068E670E086ED93E063
:100FC0000E942B13E8EEF3E0DF011D92CA95E9F7CA
:100FD00060EC73E08EED93E00E945207B8018EEE54
:100FE00093E00E9465076CEA76E084EE93E00E944D
:100FF00065078AE290E0CF911F910F910C94030551
:10100000FF920F931F93CF93DF93182F092FEB01BC
:10101000F42ECB010E94F300BE01882309F446C0E0
:101020008EE793E00E94A3078881807F803E91F045
:1010300088819981AA81BB818F3F9F4FAF4FBF4F5E
:1010400049F044E050E0BE0189EB93E00E94D313E5
:10105000892B31F46BE471E088EC93E00E94520735
:1010600088E08093D4031092D50349E050E06CE00F
:1010700071E086ED93E00E942B131092D80381E17A
:101080008093DF031092EC03F092ED030093EA03E8
:101090001093EB031092EE031092F0031092F10301
:1010A000DF91CF911F910F91FF90089584E893E015
:1010B000B9CF1F93CF93DF93EC01E8ECF3E086E127
:1010C00091E0DF019C011D9221503040E1F78091B9
:1010D000BF036BE471E0833011F466E673E043E430
:1010E00050E084E490E00E9400086BE471E088EC3A
:1010F00093E00E94520781E08093F2038093F30310
:1011000086E08093F40380916B0390916C03A0912F
:101110006D03B0916E038093F6039093F703A09351
:10112000F803B093F9031091BF03133031F46CEA64
:1011300076E08EEF93E00E94650760EC73E08EE04E
:1011400094E00E9452078EED94E0909365038093A3
:10115000640360E071E086E00E94D30583E0111132
:1011600001C081E00E94C6058DE30E94C60587E0AC
:101170000E94C60581E00E94C60560EC73E086E02F
:101180000E94D3058CE00E94C6058AE00E94C60535
:1011900068E071E08AE00E94D3052097A9F082E31D
:1011A0000E94C60584E00E94C605BE0184E00E943C
:1011B000D30586E30E94C60584E00E94C60566E664
:1011C00073E084E00E94D30587E30E94C60583E0B4
:1011D0000E94C60581E00E94C60583E00E94C60504
:1011E00086E00E94C6058FEF0E94C60580916403C9
:1011F00090916503825F9340DF91CF911F910C9492
:101200004C05CF92DF92EF92FF920F931F93CF93F3
:10121000DF9300D000D0CDB7DEB78C018091BF0343
:101220008230C9F098F4882309F49CC0813009F415
:10123000B8C00F900F900F900F90DF91CF911F913A
:101240000F91FF90EF90DF90CF900895833009F4D5
:1012500054C0843071F765E0C8010E948605882378
:1012600009F4C7C080916A03811108C088E30E9415
:101270008904682F6E7F88E30E946F0462E074E047
:101280008CEA96E00E946507E2EEF4E008531C4FFA
:101290007F0122E0E20EF11CD1808081863009F4CA
:1012A000FAC008F0BDC0813009F4EBC0833009F406
:1012B000EEC0F701ED0DF11DE017F10748F30E94B4
:1012C0002803609373037093740380937503909362
:1012D000760380918E06882361F01092BE031092EF
:1012E000BD0381E0809384066EE876E0CB010E9426
:1012F000650783E08093BF039CCFC0907703D090B5
:101300007803E0907903F0907A032FEFC216D206AB
:10131000E206F20609F48DCF0E94280300917303C0
:10132000109174032091750330917603601B710B4B
:10133000820B930B6C157D058E059F0508F479CF04
:101340008CEA96E00E94590884E08093BF030E94D3
:10135000280360936F0370937003809371039093DD
:10136000720367CF0E94280360936B0370936C0332
:1013700080936D0390936E03ECEAF6E084E0DF0166
:101380001D928A95E9F790E080E00E94590888E371
:101390000E948904682F616088E30E946F0481E0E5
:1013A000D4CF62E0C8010E948605882311F162E073
:1013B00074E0CE0101960E946507E2EEF4E0085366
:1013C0001C4FBF016E5F7F4F81819081963351F436
:1013D00086E693E00E946507CE0101960E945908B7
:1013E00082E0B3CFFB01E80FF11DE017F10748F3EE
:1013F000F3CF0E94280300916F0310917003209196
:10140000710330917203601B710B820B930B61317E
:1014100077428105910508F40CCF1092BF0309CFE4
:101420008A3331F08F3F09F44ACF833309F041CF3B
:1014300010927703109278031092790310927A0336
:10144000F701C701049620E030E0A9016191542F13
:10145000432F322F2227260F311D411D511D8E177C
:101460009F07A1F72F3F8FEF380748075807B9F4B8
:1014700020937703309378034093790350937A0352
:1014800018CFB70188EA96E00E94650712CFB7012E
:101490008EE896E0F9CFB7018AE896E0F5CFA8EE9E
:1014A000B3E00E94B3136093770370937803809343
:1014B000790390937A03FDCEFF920F931F93CF93FE
:1014C000DF938C018091C603882319F0C8010E9424
:1014D00001090115110509F0D4C0809184068570B9
:1014E00099F08091BD039091BE03892B69F40E940D
:1014F0006E05882349F08EE896E00E94CC07809123
:1015000084068860809384068091BD039091BE0319
:1015100001969093BE038093BD0380919306813022
:1015200009F078C08091840681FF74C082E08093C6
:101530009306809107018F5F8093070110919406B5
:1015400000919506C091920690E2C99FE001112496
:101550008F71C82B86E896E00E94F30066E876E07B
:10156000882309F47BC08EE793E00E94A307D8E0AC
:10157000D093D4031092D50349E050E06CE071E0C1
:1015800086ED93E00E942B138CE28093D90386E0D2
:101590008093DF030E94CD030093EC031093ED03CF
:1015A0008BE08093EA03C093EB03EEEEF3E0DF0100
:1015B0001D92DA95E9F7809106018093F0038D5F23
:1015C0008093060180E68093F60382E08093F70320
:1015D00093E09093F8031092F9031092FA0310929B
:1015E000FB031092FC031092FD038093FE0394E032
:1015F0009093FF038093000486E28093010422E02D
:1016000040E250E06AE182E30E947A038AE390E0DC
:101610000E9403058AE896E00E94F300882379F08F
:101620008091850681110BC080918C03811107C0C8
:101630008AE896E00E94CC0781E080938C0386E8DC
:1016400096E00E94F30081110CC0D0E0C0E0CE0112
:10165000DF91CF911F910F91FF90089584E893E05F
:1016600084CF80918B038111F0CF80918A03811107
:10167000ECCF86E896E00E94CC0781E080938A0355
:10168000E4CF0932110508F38091D4038830E9F6DC
:101690008091D503863009F09CC144E050E06CEAAB
:1016A00076E08EEE93E00E94D313892B71F6809141
:1016B000DD03813029F58EEC93E00E945A071092E9
:1016C000DC0382E08093DD036EED73E088EE93E04F
:1016D0000E94520760EC73E08EED93E00E94520787
:1016E00064EE73E08EEE93E00E9465076CEA76E0AC
:1016F00084EE93E00E9465078AE290E00E94030571
:101700008091840683FF0DC0C091DD03C23049F48F
:1017100064E873E08EE896E00E94B5078111C093FB
:10172000840680918506811111C080918C038823E5
:1017300069F06EE773E08AE896E00E94B5078823B7
:1017400029F081E08093850610928C0380918B03B1
:1017500081117BCF80918A03882309F476CF6EE7CD
:1017600073E086E896E00E94B507882309F46DCF00
:1017700081E080938B0310928A0367CF06331105B3
:1017800008F463CF863009F060CF8091EC038B3092
:1017900009F0B8C044E050E066E876E082EE93E0FD
:1017A0000E94D313892B09F050CFF090F703F2FE7B
:1017B00015C0E0919806F0919906309759F0809104
:1017C000ED0330E020E050E040E063E08295869554
:1017D0008770099585E08093930637CF0E94340384
:1017E000EC0180919306823009F045C09F2D9071E5
:1017F0008F2D8271823189F560E090E080E00E9457
:101800007F0788E18093F703E0919606F0919706B1
:10181000D0E0C0E0309739F08091EB038295869557
:1018200087700995EC0183E080939306CE0188963A
:101830009093D8038093D9030E94CD031092FA03AA
:101840001092FB03AE01445E5F4F22E06AE182E347
:101850000E947A03CE01C69601C181E0809393066F
:10186000911106C0CE01019664E00E947F07EDCE83
:1018700090E080E0F9CF833099F52097A1F1E091D5
:101880009806F0919906309771F18091F60390E0F7
:1018900024E0959587952A95E1F7880F991F880F81
:1018A000991F8296A801485051098417950708F49A
:1018B000AC01CE01840F951F9801241B350B08172E
:1018C000190708F09E018091ED0360E082958695EE
:1018D0008770099569E0CE010E947F0786E07BCF83
:1018E000853009F4B2CEF0FE07C0833009F4ADCEE6
:1018F00069E0CE010196F0CF209709F4A6CE60E012
:10190000CE01B3CF8111A1CE8091ED03803509F0D6
:101910009CCEF090F703F1FE39C01092D8038CE210
:101920008093D9030E946D0782E18093F70360E002
:1019300081E090E00E944F031092EE031092EF03BB
:10194000809106018093F0031092F1038D5F8093E4
:10195000060182E08093FE0384E08093FF0385E02C
:10196000809300041092010490E69093F603809314
:10197000F80388E78093F90322E040E250E06AE14F
:1019800082E30E947A038AE390E068C0F4FE5DCEB1
:101990000E943403EC01892BA1F0C091F603D0E042
:1019A00084E0D595C7958A95E1F7CC0FDD1FCC0F64
:1019B000DD1FA296085011090C171D0708F047CE2D
:1019C00044CEF0FE42CE60E090E080E00E947F07CF
:1019D0003ECE0932110509F438CE811136CE809100
:1019E000D603853409F031CE44E050E06CEA76E06D
:1019F00086EE93E00E94D313892BA9F044E050E0D7
:101A000069EB73E086EE93E00E94D313892B59F0C3
:101A100044E050E06BE471E086EE93E00E94D31363
:101A2000892B09F012CE8091DF03813009F0A6CE18
:101A30008091EA03883009F008CE0E946D07109269
:101A4000EA038091EC03883F28F09091ED039F5FBB
:101A50009093ED03885F8093EC03C8010E94030517
:101A6000F4CD0F931F93CF93DF93890190919A0642
:101A7000981781F0E0919B06F0919C0650E040E0C1
:101A800070E060E084E0099580E0DF91CF911F91E4
:101A90000F9108956111F8CF2D303105A8F3C09151
:101AA0009B06D0919C06209779F3BA016F527C4F28
:101AB00043E050E082E991E00E94EE136091F6036A
:101AC00070E024E0759567952A95E1F7660F771F1A
:101AD000660F771F6E5D7F4F21E0892B09F420E0B0
:101AE000A801822FFE01CFCFAF92BF92CF92DF929B
:101AF000EF92FF920F931F93CF93DF93CDB7DEB793
:101B0000ED84FE84CF84D8888E010F5E1F4FC601FE
:101B10000196F6012491222309F4D1C0243279F0F0
:101B2000D7011696ED91FC911797AF014F5F5F4F6C
:101B300017965C934E93169720836C01E8CFB2E022
:101B4000CB0ED11CFC018491863409F481C0A0F431
:101B5000843409F44CC0853409F494C0D701169636
:101B6000ED91FC9117979F012F5F3F4F17963C9384
:101B70002E9316978083CBCFD70116964D915C910B
:101B80008C3409F44DC0833509F457C0883431F7DB
:101B9000B8016E5F7F4FF8019081292F092E000C4C
:101BA000330B84E0359527958A95E1F72F709F7068
:101BB0009A300CF0995F905D2A300CF0295FFA01A1
:101BC0003196D7011796FC93EE931697205DFA0194
:101BD00020831696ED91FC9117979F012F5F3F4F41
:101BE00017963C932E93169790838B0190CF5801B4
:101BF000B2E0AB0EB11CF70166817781D8018D91FF
:101C00009C910E94E405F70186819781DC010D908B
:101C10000020E9F7CD01019797838683850177CF6F
:101C20005801F4E0AF0EB11CD8016D917D918D91FA
:101C30009C912AE00E943413E6CF5801B2E0AB0E2B
:101C4000B11CF80160817181CA010E94E713DBCFEA
:101C5000F8010190F081E02D0E5F1F4F84913196C5
:101C6000882309F454CFD70116964D915C911797AC
:101C70009A012F5F3F4F17963C932E931697DA01E8
:101C80008C93ECCFF801808191810E5F1F4F5C0136
:101C9000BFEFAB1ABB0A0E947513882309F437CF34
:101CA000D7011696ED91FC9117979F012F5F3F4F3B
:101CB00017963C932E9316978083C501E8CFDF914A
:101CC000CF911F910F91FF90EF90DF90CF90BF9039
:101CD000AF9008950F931F93CF93DF93CDB7DEB7E7
:101CE00028970FB6F894DEBF0FBECDBF1C821B82B3
:101CF00023E431E03A8329832EEF33E03E832D83C2
:101D000038872F8390919A0698132EC0A0919D0634
:101D1000B0919E061091A1060091A2066091A506C1
:101D20007091A60680919F069091A006AE014F5F2C
:101D30005F4F109751F59F938F930F931F9380914F
:101D4000A4068F938091A3068F937F936F9388EE61
:101D500090E09F938F935F934F930E94740D0FB603
:101D6000F894DEBF0FBECDBF8F8198852D813E8157
:101D7000821B930B28960FB6F894DEBF0FBECDBF23
:101D8000DF91CF911F910F910895FD0101900020E7
:101D9000E9F73197EA1BFB0B23E631E0009721F4CA
:101DA00025E631E080E790E0BF93AF93FF93EF9398
:101DB0003F932F939F938F930F931F937F936F93D3
:101DC00081E790E09F938F935F934F930E94740DF0
:101DD000C6CF1F920F920FB60F9211242F933F93ED
:101DE0004F935F936F937F938F939F93AF93BF9323
:101DF000EF93FF9382E397E00E949101FF91EF91AF
:101E0000BF91AF919F918F917F916F915F914F9112
:101E10003F912F910F900FBE0F901F9018951F921A
:101E20000F920FB60F9211242F938F939F93EF93DE
:101E3000FF93E0914207F09143078081E0914807CA
:101E4000F091490782FD1BC0908180914B078F5F05
:101E50008F7320914C07821741F0E0914B07F0E01F
:101E6000EE5CF84F958F80934B07FF91EF919F9118
:101E70008F912F910F900FBE0F901F90189580811A
:101E8000F4CF1F920F920FB60F9211242F933F930E
:101E90008F939F93AF93BF9380918E0390918F0305
:101EA000A0919003B091910330918D0323E0230F13
:101EB0002D3758F50196A11DB11D20938D038093F8
:101EC0008E0390938F03A0939003B093910380911E
:101ED000920390919303A0919403B091950301967E
:101EE000A11DB11D8093920390939303A09394033B
:101EF000B0939503BF91AF919F918F913F912F9197
:101F00000F900FBE0F901F90189526E8230F029692
:101F1000A11DB11DD2CFE2E3F7E01382128288EE59
:101F200093E0A0E0B0E084839583A683B78385E542
:101F300091E09183808385EC90E09587848784ECA1
:101F400090E09787868780EC90E0918B808B81EC86
:101F500090E0938B828B82EC90E0958B848B86EC67
:101F600090E0978B868B118E128E138E148E0895AF
:101F7000789484B5826084BD84B5816084BD85B564
:101F8000826085BD85B5816085BD80916E00816070
:101F900080936E0010928100809181008260809316
:101FA0008100809181008160809381008091800018
:101FB0008160809380008091B10084608093B10043
:101FC0008091B00081608093B00080917A0084603D
:101FD00080937A0080917A00826080937A00809169
:101FE0007A00816080937A0080917A008068809383
:101FF0007A001092C100E0914207F091430782E01D
:102000008083E0913E07F0913F071082E091400706
:10201000F09141078FEC808310924A07E0914607C8
:10202000F091470786E08083E0914407F0914507EF
:10203000808180618083E0914407F0914507808131
:1020400088608083E0914407F09145078081806833
:102050008083E0914407F091450780818F7D8083E4
:1020600060E083E00E94A00286E991E00E940F06F2
:102070001092C60387E390E0C12CD12C7601C39463
:102080000097C1F0FC01A3E0F595E795AA95E1F76B
:10209000E756FC4F282F2770B701A60104C0440F54
:1020A000551F661F771F2A95D2F72081242B208386
:1020B0000197E6CF68E271E080EC93E00E9452075E
:1020C0008CEB92E090939803809397030CB406FCFA
:1020D00025C061E08AE00E94A00261E08AE00E94DF
:1020E000720261E08BE00E94A00261E08DE00E943C
:1020F000A00260E08CE00E94A00261E08BE00E9400
:10210000720260E08BE00E94720260E08DE00E944B
:10211000720280E58CBD8DB581608DBD8AE08093B3
:10212000960361E00E94A0020E94F1034FEF60E07D
:102130008FEF0E943E0462E070E080E090E00E9439
:10214000F6020E94F8038DE10E94EC0380E00E94F9
:10215000EC03CEB50E94F103CC2399F370E060E06C
:1021600088E00E947C0470E060E08CE00E947C04C7
:102170006FEF7BE08AE00E947C0460E07CE084E01A
:102180000E947C046FEF71E186E00E947C0461EBA9
:1021900088E30E946F046FE370E388E20E947C048E
:1021A00069EF77EF80E30E947C046DE080EC0E9491
:1021B0006F0460E081EC0E946F0442E362EC80E80F
:1021C0000E943E0462E17CE086EC0E947C0462E1B5
:1021D00084EC0E946F046CED75E08AEC0E947C0434
:1021E0006091C00384EE0E946F046091C10385EE8C
:1021F0000E946F046091C20382EE0E946F0460919E
:10220000C30383EE0E946F046091C40380EE0E94BA
:102210006F046091C50381EE0E946F0460E184ED5C
:102220000E946F0460E071E086ED0E947C048AEEFB
:102230000E94890480FDFBCF8FE10E94530440EC93
:102240006BE180E80E943E0444E06FE180E80E9478
:102250003E0482E70E948904863008F08F5F811176
:1022600004C087EA91E00E940F06FF24F394E0EB9C
:10227000CE2EE6E0DE2EF092C6038091C503282F15
:1022800030E074E0359527957A95E1F790E32A30B0
:102290000CF097E3920F909310018F7090E38A30C7
:1022A0000CF097E3890F809311011092BF030E94F5
:1022B00028038B01E090BF0383E0E81641F00E9401
:1022C0002803601B710B60367A4E08F44FC0ECEAAD
:1022D000F6E028EA36E0A9EBB3E09191E9018991B3
:1022E0009E018095892B8D93CE16DF06B1F7109253
:1022F000BE031092BD03D3E0ED1242C06CEA76E05B
:1023000088E092E00E94BC0668EA76E080E192E014
:102310000E94BC066EE876E08AE192E00E94BC066C
:102320006AE876E082E292E00E94BC060E942803FE
:10233000EB010E946E05882341F111E08AE896E0E6
:102340000E94F300882309F4B9C080918506812793
:1023500009F4B9C00E94A1040E945C0A0E942803EB
:102360006C1B7D0B6033754748F316C00E946E05E9
:10237000882309F49FCF0E94A1040E9401099ACFEB
:102380008CEC91E00E940F0676CF0E9428036C1B14
:102390007D0B6033754768F287E592E00E940F0677
:1023A00066E876E08BE292E00E94BC062AE6422EC6
:1023B0002EE0522E3EE8632E31E0732E4EE2842E44
:1023C00041E0942EC1E8D1E00FE611E051E2E52EA4
:1023D00057E0F52E61E3C62E6DE0D62E33243394FC
:1023E00080E5282E90E0A92E90E0B92E0E94A1044D
:1023F0000E945C0A83E00E9449020197F1F58091F6
:10240000A70681113AC084E392E00E940F06309241
:10241000A7067092A6066092A5069092A4068092E6
:10242000A306D093A206C093A1061093A006009322
:102430009F0610929E0610929D06F0929C06E092D6
:102440009B06D0929906C0929806509297064092A9
:1024500096061092950620929406309293068091EB
:1024600092068F5F87708093920680939A066AE047
:1024700070E080E090E00E94F60283E00E94490252
:10248000892B81F48091A706882361F086E492E08D
:102490000E940F061092A70664EF71E080E090E0C2
:1024A0000E94F602A114B10409F4A0CF0E947D019C
:1024B000882309F493CF0E94000090CF8091840676
:1024C0008695817044CFE6E8F6E084E0EF0119924A
:1024D0008A95E9F78091C703C1E0C80FC093C7038D
:1024E00080918A06811108C044E050E068E070E005
:1024F0008AE896E00E94E0138C2F90E045E350E0DC
:102500006AE876E0906E0E940008E2EFF3E08CE06B
:10251000DF011D928A95E9F7AEEFB3E0E1E8F1E063
:1025200080E0249131962E3241F0222331F08F5FEA
:10253000ED01C80FD11D2883F4CF8C9390E0019654
:10254000A80FB91F2111ECCF1C9211961C92119764
:1025500081E012968C93129713961C9213971496FF
:102560008C93149728EC33E0A21BA552A093F2039E
:102570009091C7039093F3038093F4038093F70340
:102580008A2F90E00E944C050E942803EB01809165
:102590008606811105CF0E9428036C1B7D0B6033DA
:1025A000754708F0F9CE0E94A1048C01009779F3D9
:1025B0000E945C0A892B59F70634110540F380917B
:1025C000EB03853321F78091EC03803E01F7809186
:1025D000ED039091C7038913DACF9091F303891328
:1025E000D6CF8091F5038F7009F0D6CEE091F2033B
:1025F000F0E0EE50FC4F08531C4F8081807CDF01DF
:102600001296811109C0DF011196A017B10720F4BD
:102610008181811119C01196CD010E9608171907F5
:1026200008F4B5CF1996EC91199711968C911197E2
:10263000813061F4E43051F4BD01665F7F4F86E87C
:1026400096E00E946507A3CFFD01DDCFF0E03A964A
:10265000EA0FFB1FD2CFFB01DC0102C005900D92F7
:1026600041505040D8F70895BB272A3051F49923A0
:1026700042F4BDE290958095709561957F4F8F4FA4
:102680009F4F0C944413BB27FA01A62F62177105C4
:1026900081059105330B30FB66F0AA27660F771F83
:1026A000881F991FAA1FA21710F0A21B639538500C
:1026B000A9F7A05DAA3308F0A95DA19336F7B1117F
:1026C000B1931082CA010C946513DC01FC01672FE1
:1026D00071917723E1F7329704C07C916D937083F9
:1026E0006291AE17BF07C8F30895F999FECF92BD66
:1026F00081BDF89A992780B50895AA1BBB1B51E1AB
:1027000007C0AA1FBB1FA617B70710F0A61BB70B61
:10271000881F991F5A95A9F780959095BC01CD0106
:102720000895A1E21A2EAA1BBB1BFD010DC0AA1F12
:10273000BB1FEE1FFF1FA217B307E407F50720F02A
:10274000A21BB30BE40BF50B661F771F881F991FA5
:102750001A9469F760957095809590959B01AC01EE
:10276000BD01CF0108950E94C413A59F900DB49F91
:10277000900DA49F800D911D11240895EE0FFF1F51
:102780000590F491E02D0994A29FB001B39FC00180
:10279000A39F700D811D1124911DB29F700D811D8D
:1027A0001124911D0895FB01DC0104C08D9101905D
:1027B000801921F441505040C8F7881B990B0895A7
:1027C000DC0101C06D9341505040E0F70895FB01DA
:1027D000DC0101900D920020E1F70895FB01DC017E
:1027E0004150504030F08D910190801919F4002033
:1027F000B9F7881B990B0895AEE0B0E0E2E0F4E190
:102800000C94AB160D891E8986E08C831A8309838C
:102810008FEF9FE79E838D83AE01475E5F4F6F8989
:10282000788DCE0101960E941F142F813885020FEA
:10283000131FF80110822E96E4E00C94C716ABE04B
:10284000B0E0E5E2F4E10C949D167C013B018A01C5
:10285000FC0117821682838181FFC8C1CE010196D7
:102860005C01F7019381F30193FD859193FF8191C1
:102870003F01882309F453C1853239F493FD8591D2
:1028800093FF81913F01853229F4B70190E00E94C6
:102890000F16E7CF912C212C312CFFE1F31538F0E6
:1028A0008B3211F190F4803209F1833229F137FC37
:1028B0003CC020ED280F2A3050F536FE20C08AE0BB
:1028C000989E200D1124922E06C08D3291F08033F7
:1028D00071F7689430F8F30193FD859193FF81912E
:1028E0003F018111DACF21C0689431F8689432F841
:1028F000F2CF689433F8EFCF689434F8ECCFEAE085
:102900002E9E200D1124222E689435F8E4CF8E32AD
:1029100029F436FC04C1689436F8DDCF8C3619F4FE
:10292000689437F8D8CF8836B1F2982F9F7D9554A8
:102930009330E0F08336A1F18337C1F1833509F09C
:1029400063C02801F2E04F0E511CF801C080D18015
:10295000692D70E036FC02C06FEF7FEFC6010E9468
:10296000F9154C01689437F882010AC00C5F1F4FBB
:10297000FFE3F98388248394912C6501E89437F868
:1029800033FE2DC0522C8114910471F5552009F4A9
:1029900068CFB70180E290E00E940F165A94F6CFFC
:1029A000F801808189830E5F1F4FE4CF2801F2E098
:1029B0004F0E511CF801C080D180692D70E036FCAB
:1029C00002C06FEF7FEFC6010E9404164C01820126
:1029D000D5CFB70180E290E00E940F162A94281408
:1029E000190409F0B0F7CECFF60137FC859137FE18
:1029F00081916F01B70190E00E940F1651105A9417
:102A0000F1E08F1A9108BFCF843619F0893609F0AA
:102A100077C0F80137FE6BC060817181828193813C
:102A20000C5F1F4FF32DFF763F2E97FF09C0909547
:102A30008095709561957F4F8F4F9F4F689437F8C1
:102A40002AE030E0A5010E943F16C82ECA188C2C3F
:102A5000432C36FE0CC0E89440F8C91440F434FE10
:102A600005C032FC03C0F32DFE7E4F2E892C44FEA0
:102A700095C0FE01EC0DF11D8081803309F087C007
:102A8000242D297E422E842D8870582E43FC95C01B
:102A900040FE8FC09C2C821418F42C0C922C981899
:102AA00044FE91C0B70180E390E00E940F1642FE01
:102AB00009C088E790E041FE02C088E590E0B701D8
:102AC0000E940F16C91408F48AC0CA94D12C9FEF33
:102AD000C91AD90ACA0CDB1CF60182916F01B70131
:102AE00090E00E940F16AC14BD04B1F74FCF608187
:102AF0007181072E000C880B990B0E5F1F4F92CF30
:102B0000D32CE894D4F82AE030E0853739F1232D2E
:102B1000297FD22E8F3601F148F48835A9F0F701CC
:102B2000868197812B96E2E10C94B916803749F0A3
:102B30008837A9F7D4FE02C06894D2F820E130E0CB
:102B40000DC06894D4F8F6CF34FE03C0822F86609F
:102B5000D82E20E132E002C028E030E0F801D7FEB4
:102B60000FC060817181828193810C5F1F4FA5012D
:102B70000E943F16C82ECA183D2CE89437F867CF3C
:102B80006081718190E080E00E5F1F4FF0CF42FCCA
:102B900002C0839478CF8394839475CF842D8678F4
:102BA00009F471CFF6CFB70180E290E00E940F16D2
:102BB00083948214C0F3512C73CF522C5818821472
:102BC00008F46ECFF8CF842D867809F47BCF8BE2A2
:102BD00041FE80E247FC8DE2B70190E071CFB70182
:102BE00080E390E00E940F169A946CCF8FEF9FEFD6
:102BF00099CFFC010590615070400110D8F7809585
:102C000090958E0F9F1F0895FC01615070400190B8
:102C10000110D8F7809590958E0F9F1F08950F9300
:102C20001F93CF93DF93182F092FEB018B8181FD29
:102C300009C01FEF0FEF812F902FDF91CF911F91D0
:102C40000F91089582FF14C02E813F818C819D8158
:102C5000281739073CF4E881F981CF01019699835F
:102C6000888310838E819F8101969F838E83E3CF1B
:102C7000E885F985812F0995892BA1F3DACFFA012F
:102C8000AA27283051F1203181F1E8946F936E7FAB
:102C90006E5F7F4F8F4F9F4FAF4FB1E03ED0B4E09C
:102CA0003CD0670F781F891F9A1FA11D680F791FDD
:102CB0008A1F911DA11D6A0F711D811D911DA11DEE
:102CC00020D009F468943F912AE0269F11243019FE
:102CD000305D3193DEF6CF010895462F4770405D99
:102CE0004193B3E00FD0C9F7F6CF462F4F70405D48
:102CF0004A3318F0495D31FD4052419302D0A9F7A3
:102D0000EACFB4E0A6959795879577956795BA959C
:102D1000C9F700976105710508959B01AC010A2E62
:102D200006945795479537952795BA95C9F7620F39
:102D3000731F841F951FA01D08952F923F924F92DD
:102D40005F926F927F928F929F92AF92BF92CF923B
:102D5000DF92EF92FF920F931F93CF93DF93CDB744
:102D6000DEB7CA1BDB0B0FB6F894DEBF0FBECDBFBC
:102D700009942A88398848885F846E847D848C848D
:102D80009B84AA84B984C884DF80EE80FD800C8196
:102D90001B81AA81B981CE0FD11D0FB6F894DEBF79
:0C2DA0000FBECDBFED010895F894FFCFE9
:102DAC006382536335010A0141726475696E6F2D3C
:102DBC0030300000000000000000000000000000A7
:102DCC000000000000000000249946AD303162651F
:102DDC0065663133333762656566313333370000EE
:102DEC00000000DC03130102060106FFFFFFFFFFDA
:102DFC00FF00000000B30113014001000271014FFC
:102E0C000163010D0A00494E4943494F2052455177
:102E1C005549534943414F0046494D205245515560
:102E2C0049534943414F007B224944223A202573A0
:102E3C007D00323030000A5B676574444843506152
:102E4C006E64444E535D004661696C656420746F1A
:102E5C00206163636573732045746865726E657475
:102E6C0020636F6E74726F6C6C6572004572726F5A
:102E7C00723A2044484350206661696C65642E2088
:102E8C0043616E27742067657420616E2049502061
:102E9C00616464726573732C206C65742773207283
:102EAC00657472792E2E2E004D792049503A2000EF
:102EBC004E65746D61736B3A200047572049503A48
:102ECC002000444E532049503A20005365727665D9
:102EDC00723A200070696E446576696431206973BA
:102EEC0020484947480070696E4465766964312012
:102EFC006973204C4F5700444E53206661696C65D2
:022F0C0064005F
:107E0000112484B714BE81FFF0D085E080938100F7
:107E100082E08093C00088E18093C10086E0809377
:107E2000C20080E18093C4008EE0C9D0259A86E02C
:107E300020E33CEF91E0309385002093840096BBD3
:107E4000B09BFECF1D9AA8958150A9F7CC24DD24C4
:107E500088248394B5E0AB2EA1E19A2EF3E0BF2EE7
:107E6000A2D0813461F49FD0082FAFD0023811F036
:107E7000013811F484E001C083E08DD089C08234E0
:107E800011F484E103C0853419F485E0A6D080C0E4
:107E9000853579F488D0E82EFF2485D0082F10E0AE
:107EA000102F00270E291F29000F111F8ED06801E7
:107EB0006FC0863521F484E090D080E0DECF843638
:107EC00009F040C070D06FD0082F6DD080E0C81688
:107ED00080E7D80618F4F601B7BEE895C0E0D1E017
:107EE00062D089930C17E1F7F0E0CF16F0E7DF06D8
:107EF00018F0F601B7BEE89568D007B600FCFDCFD4
:107F0000A601A0E0B1E02C9130E011968C91119780
:107F100090E0982F8827822B932B1296FA010C0160
:107F200087BEE89511244E5F5F4FF1E0A038BF0790
:107F300051F7F601A7BEE89507B600FCFDCF97BE46
:107F4000E89526C08437B1F42ED02DD0F82E2BD052
:107F50003CD0F601EF2C8F010F5F1F4F84911BD097
:107F6000EA94F801C1F70894C11CD11CFA94CF0C13
:107F7000D11C0EC0853739F428D08EE10CD085E9AC
:107F80000AD08FE07ACF813511F488E018D01DD067
:107F900080E101D065CF982F8091C00085FFFCCF94
:107FA0009093C60008958091C00087FFFCCF809118
:107FB000C00084FD01C0A8958091C6000895E0E648
:107FC000F0E098E1908380830895EDDF803219F02E
:107FD00088E0F5DFFFCF84E1DECF1F93182FE3DFCA
:107FE0001150E9F7F2DF1F91089580E0E8DFEE27F6
:047FF000FF270994CA
:027FFE00040479
:0400000300007E007B
:00000001FF
