:100000000C94C9000C94F1000C94F1000C94F100D4
:100010000C94F1000C94F1000C94F1000C94F1009C
:100020000C94F1000C94F1000C94F1000C94F1008C
:100030000C94F1000C94F1000C94F1000C94F1007C
:100040000C94580F0C94F1000C94260F0C94000F94
:100050000C94F1000C94F1000C94F1000C94F1005C
:100060000C94F1000C94F10000010800060400015A
:1000700000504F535420244620485454502F312EC2
:10008000300D0A486F73743A2024460D0A24462422
:10009000534163636570743A202A2F2A0D0A436F17
:1000A0006E74656E742D4C656E6774683A202444D6
:1000B0000D0A436F6E74656E742D547970653A2025
:1000C0006170706C69636174696F6E2F782D7777DA
:1000D000772D666F726D2D75726C656E636F6465DA
:1000E000640D0A0D0A245300474554202446245326
:1000F00020485454502F312E300D0A486F73743AF3
:100100002024460D0A24460D0A0D0A0045000082EF
:10011000000040002000000000240027002A00000A
:10012000000000250028002B00000000002300260E
:10013000002900040404040404040402020202026C
:10014000020303030303030102040810204080019B
:10015000020408102001020408102000000008001A
:10016000020100000304070000000000000000413D
:1001700063636570743A20746578742F68746D6C6D
:10018000006D6F747932322E636F2E756B002F0005
:10019000A20F11241FBECFEFD8E0DEBFCDBF12E00B
:1001A000A0E0B1E0EEE0FEE202C005900D92AC33BB
:1001B000B107D9F727E0ACE3B2E001C01D92A73A3E
:1001C000B207E1F710E0C9ECD0E004C02197FE01CE
:1001D0000E94D513C83CD107C9F70E94CF0F0C94D9
:1001E00005170C940000CF93DF93209184062223FF
:1001F000C1F0FC0120812223A1F0C4E8D6E0A0E8F0
:10020000B6E09C012C5F3F4F899141919D918427DD
:10021000892339F4E217F307B9F781E0DF91CF9131
:10022000089580E0FBCFAF92BF92CF92DF92EF9222
:10023000FF920F931F93CF93DF936C017B018B0190
:10024000040F151FEB015E01AE18BF08C017D107E0
:1002500059F06991D601ED91FC910190F081E02D6A
:10026000C6010995892B79F7C501DF91CF911F91BF
:100270000F91FF90EF90DF90CF90BF90AF900895D7
:10028000FC01538D448D252F30E0842F90E0821B9C
:10029000930B541710F0CF96089501970895FC0121
:1002A000918D828D981761F0A28DAE0FBF2FB11D79
:1002B0005D968C91928D9F5F9F73928F90E00895D1
:1002C0008FEF9FEF0895FC01918D828D981731F08B
:1002D000828DE80FF11D858D90E008958FEF9FEFDF
:1002E0000895FC01918D228D892F90E0805C9F4FB5
:1002F000821B91098F73992708958AE097E00E94E5
:10030000710121E0892B09F420E0822F089580E01B
:1003100090E0892B29F00E947D0181110C9400004E
:100320000895FC01A48DA80FB92FB11DA35ABF4F8A
:100330002C91848D90E001968F739927848FA689E4
:10034000B7892C93A089B1898C91837080648C9338
:10035000938D848D981306C00288F389E02D8081E7
:100360008F7D80830895EF92FF920F931F93CF9319
:10037000DF93EC0181E0888F9B8D8C8D98131AC0E0
:10038000E889F989808185FF15C09FB7F894EE89C7
:10039000FF896083E889F989808183708064808324
:1003A0009FBF81E090E0DF91CF911F910F91FF906F
:1003B000EF900895F62E0B8D10E00F5F1F4F0F7317
:1003C0001127E02E8C8D8E110CC00FB607FCFACFD2
:1003D000E889F989808185FFF5CFCE010E949101DE
:1003E000F1CFEB8DEC0FFD2FF11DE35AFF4FF082A3
:1003F0009FB7F8940B8FEA89FB8980818062CFCF09
:10040000CF93DF93EC01888D8823B9F0AA89BB894B
:10041000E889F9898C9185FD03C0808186FD0DC036
:100420000FB607FCF7CF8C9185FFF2CF808185FF57
:10043000EDCFCE010E949101E9CFDF91CF910895D8
:10044000833081F028F4813099F08230A9F008954A
:100450008730A9F08830C9F08430B1F480918000F1
:100460008F7D03C0809180008F77809380000895F6
:1004700084B58F7784BD089584B58F7DFBCF80913F
:10048000B0008F778093B00008958091B0008F7D89
:10049000F9CFCF93DF93282F30E0F901E55AFE4FD3
:1004A0008491F901E95BFE4FD491F901ED5CFE4FB7
:1004B000C491CC23A1F081110E942002EC2FF0E026
:1004C000EE0FFF1FE75DFE4FA591B491EC91ED2378
:1004D00081E090E009F480E0DF91CF91089580E021
:1004E00090E0FACF1F93CF93DF93282F30E0F901EC
:1004F000E55AFE4F8491F901E95BFE4FD491F90171
:10050000ED5CFE4FC491CC23A9F0162F81110E94FF
:100510002002EC2FF0E0EE0FFF1FE15EFE4FA591F1
:10052000B4918FB7F894EC91111108C0D095DE23E7
:10053000DC938FBFDF91CF911F910895DE2BF8CF11
:10054000CF93DF9390E0FC01E95BFE4F24918D5C3B
:100550009E4FFC0184918823D1F090E0880F991F71
:10056000FC01EB5EFE4FA591B491FC01E15EFE4FF4
:10057000C591D49161110EC09FB7F8948C91E22F70
:10058000E0958E238C932881E223E8839FBFDF913F
:10059000CF9108958FB7F894EC91E22BEC938FBF35
:1005A000F6CF3FB7F89480916A0390916B03A091C6
:1005B0006C03B0916D0326B5A89B05C02F3F19F0C1
:1005C0000196A11DB11D3FBFBA2FA92F982F8827D3
:1005D000BC01CD01620F711D811D911D42E0660FAE
:1005E000771F881F991F4A95D1F708958F929F9280
:1005F000AF92BF92CF92DF92EF92FF924B015C01DC
:100600000E94D1026B017C010E94D1026C197D090C
:100610008E099F09683E734081059105A8F321E08A
:10062000821A9108A108B10888EEC80E83E0D81E8E
:10063000E11CF11C81149104A104B10429F7FF907D
:10064000EF90DF90CF90BF90AF909F908F900895E4
:100650002FB7F894609166037091670380916803E7
:10066000909169032FBF08958091B0039091B103D9
:1006700098278927982744972091CE0330E044E0BB
:10068000359527954A95E1F7220F331F220F331F27
:10069000821B930B97FF02C090E080E008952091A9
:1006A000C4033091C2033093C4032093C20320914A
:1006B000C5033091C3033093C5032093C303E0EA1D
:1006C000F3E021A5820F911D25A585A7662381F062
:1006D00021A7892F9927319723E0EC39F20789F771
:1006E0001092D2031092D30380E58093CE03089535
:1006F00011A6EFCF0F931F93CF93DF9370E0605657
:100700007C4F8A01075F1F4F213029F0223031F4DE
:100710008A010250110930E020E003C000E010E03F
:100720009801EB01FA01E230F10558F0A991B99175
:10073000BA27AB27BA270A0F1B1F211D311D32977D
:10074000F2CFFA01EE7F6E0F7F1F4E175F0769F041
:10075000FB01408150E070E060E0762F652F542F60
:100760004427040F151F261F371FA9016627772767
:10077000411551056105710519F022273327F1CF85
:1007800000951095E82FF0E0E056FC4F10830183B0
:10079000DF91CF911F910F910895E0EAF3E0108E61
:1007A000118E80E4848B158A868B20E044E150E032
:1007B0006EE088E10C947A03DC011696ED91FC91D1
:1007C00017979F012F5F3F4F17963C932E931697D5
:1007D000608381E090E008958EBD0DB407FEFDCFEB
:1007E000089561E080916E030E94720278940895EA
:1007F000F89460E080916E030C947202EF92FF9285
:100800000F931F93CF93DF938C017B010E94F8031A
:100810008AE70E94EC03E7010E0D1F1DC017D107E8
:1008200021F089910E94EC03F9CFDF91CF911F91C4
:100830000F91FF90EF900C94F103EF92FF920F93C2
:100840001F93CF93DF938C017B010E94F8038AE30F
:100850000E94EC03E7010E0D1F1DC017D10731F0F8
:1008600080E00E94EC038EB58993F7CFDF91CF91A2
:100870001F910F91FF90EF900C94F1031F93CF9372
:10088000DF93182FC62FD42F0E94F8038C2F8F715F
:10089000812B0E94EC038D2F0E94EC03DF91CF91FE
:1008A0001F910C94F103CF93C82FC076809153030E
:1008B0008C1799F043E06FE180EA0E943E04C093F8
:1008C00053034C2F50E085E0559547958A95E1F705
:1008D0006FE180E8CF910C943E04CF910895CF93BF
:1008E000DF93C82FD62F0E9453044D2F6C2F80E426
:1008F000DF91CF910C943E04CF93DF93C82FD72F75
:100900000E946F046D2F81E08C0FDF91CF910C94CA
:100910006F04CF93C82F0E9453040E94F8038C2FBA
:100920008F710E94EC0380E00E94EC03C7FF03C0BC
:1009300080E00E94EC03CEB50E94F1038C2FCF9192
:100940000895EF92FF920F931F93CF93DF9300D000
:1009500000D000D0CDB7DEB789E30E94890410E053
:1009600000E0882309F441C060915403709155035D
:1009700080E00E947C04BE016F5F7F4F86E090E0C4
:100980000E941D04E980FA80F0925503E09254031E
:100990008D819E818C010078112787FF12C08B8189
:1009A0009C81049700916F0310917003015011090D
:1009B0008017910708F48C0160EA73E0C8010E9477
:1009C0001D04F801E056FC4F10826FEF7BE0E1144C
:1009D000F10419F0B701615071098CE00E947C04A8
:1009E00040E46EE180E80E943E04C80126960FB6FE
:1009F000F894DEBF0FBECDBFDF91CF911F910F9155
:100A0000FF90EF900895CF93DF93EC0140E86FE102
:100A100080E80E943E0440E86FE180EA0E943E04C4
:100A20004AE06CE180EA0E943E0460E07CE082E003
:100A30000E947C04BE01745F86E00E947C0440E05A
:100A400060E08AE70E943E0460EA73E0CE010E9403
:100A5000FE0348E06FE180E80E943E04D0E0C0E081
:100A60008CE10E9489048A7029F42196C83E83E0B3
:100A7000D807B1F78CE10E94890481FD03C0C83E0C
:100A8000D34039F448E06FE180EADF91CF910C94D4
:100A90003E04DF91CF9108950F931F93CF93DF937F
:100AA000EC0100EA13E04C96F801908B818B0E94D8
:100AB000CD03CE010896F80196A387A3AE01405F4F
:100AC0005F4F21E06AE188E20E947A03CE018A96B4
:100AD000DF91CF911F910F910C94030561E184ED9B
:100AE0000E946F0461E082ED0E946F048AEE0E9412
:100AF000890480FDFBCF60E082ED0E946F0489EDE8
:100B00000E94890482FB882780F90895CF92DF92A2
:100B1000EF92FF920F931F938634910568F1209115
:100B2000C303233449F5C090CE03D090CF03E090A7
:100B3000D003F090D103009143031091440320911E
:100B4000450330914603C016D106E206F306A1F430
:100B5000EAEBF4E080569C4F9F012E5F3F4F4181AE
:100B60005081553319F45281651771F0F901E40F82
:100B7000F11DE817F90780F380E01F910F91FF90B6
:100B8000EF90DF90CF90089581E0F7CFE0913C03A4
:100B9000F0913D039F012F5F3F4F30933D03209322
:100BA0003C03808308950F931F93CF93C82F8B012D
:100BB000C15030F0F80181918F010E94C605F8CF35
:100BC000CF911F910F910895CF93DF93EC01FB011B
:100BD0008A30910548F06AE070E00E949413CB01DE
:100BE000BF010E94E405FC01CE016AE070E00E94B2
:100BF0009413805D80831182CF010196DF91CF91A4
:100C00000895089590E080E00895FB010190002090
:100C1000E9F73197AF01461B570B0C941301CF93A3
:100C2000DF93BC018AE097E00E940506EC0163E6D1
:100C300071E08AE097E00E9405068C0F9D1FDF910E
:100C4000CF910895CF93DF939091C806981781F1C3
:100C5000C82F20E4929FC0011124BC017E5E813C1C
:100C60009D4048F482E00E947C0468E876E080E4DD
:100C700090E00E94FE0380910907C81303C08FEF24
:100C800080930907C093C80680E4C89FE00111243F
:100C9000BE017E5EC13CDD4058F480E00E947C04D1
:100CA00068E876E080E490E0DF91CF910C941D0439
:100CB000DF91CF9108950F931F93CF93DF93EC01B2
:100CC000162F8E810E942206E091C60681E08E0FCB
:100CD000F0E0E857F94F10838F3348F48093C6064D
:100CE00081E090E0DF91CF911F910F910895E1E7AE
:100CF000F3E030E020E0822F91919923B1F170E090
:100D000060E0492F50E0A62F8A01062E02C01595FB
:100D100007950A94E2F700FF23C02F583C4F41E0AB
:100D200050E060E070E00A2E04C0440F551F661FBB
:100D3000771F0A94D2F740954923F9014083880F21
:100D4000880F880F8A0F8093C7068E830E94220621
:100D50001092C7061092C6068C818F5F8C83C0CF1D
:100D60006F5F7F4F6830710571F62F5F3F4F203204
:100D7000310509F680E0E7CF8F929F92AF92BF9244
:100D8000CF92DF92EF92FF921F93CF93DF93CDB775
:100D9000DEB7A1970FB6F894DEBF0FBECDBFD62E3B
:100DA000172FBC018AE097E00E940506ED2CF12E7A
:100DB00010E08AE0882E912CA12CB12CF701219112
:100DC0007F0130E050E040E019A26E01F1E2CF0E69
:100DD000D11CCA01B901A50194010E94A813605D4C
:100DE000F60162936F01211531054105510589F71F
:100DF000309729F0BF018AE097E00E940506133082
:100E000029F06EE28AE097E00E94B3011F5F143080
:100E1000A9F663E671E08AE097E00E940506A196D4
:100E20000FB6F894DEBF0FBECDBFDF91CF911F91FB
:100E3000FF90EF90DF90CF90BF90AF909F908F90FA
:100E400008950F931F93CF93DF93CDB7DEB7C055AF
:100E5000D1090FB6F894DEBF0FBECDBF60567C4FF0
:100E6000FB01E45DFE4F10827F936F9386E691E075
:100E70009F938F938CE392E09F938F930E942D1406
:100E80006AE370E08CE392E00E94FE138E010F5F34
:100E90001F4F20E5F80111922A95E9F74BE150E048
:100EA000BC01C8010E941E14C8010E940F060F90C9
:100EB0000F900F900F900F900F90C05BDF4F0FB609
:100EC000F894DEBF0FBECDBFDF91CF911F910F9180
:100ED0000895DC0196E0FB0101900D929A95E1F7EF
:100EE0000895BC0180EA93E00E94690768E973E015
:100EF00086EA93E00C946907DC0194E0FB01019021
:100F00000D929A95E1F7089586EA93E00E947107A1
:100F10006AEB73E08EEB93E00E947C0764E876E076
:100F20008AEB93E00E947C070C94CD03262F20616E
:100F30002093CF03643021F0009711F481E090E01A
:100F400061E00E944F031092B00388E28093B103E6
:100F50000E94840784E08093D0031092D10322E0A2
:100F60004CE150E06AE182E30E947A0386E390E07C
:100F70000C940305CF93DF93EB010E947107BE0130
:100F80008EEB93E00E947C0764E876E08AEB93E0C6
:100F9000DF91CF910C947C07CF93DF93EB0144E07A
:100FA00050E0BC018CEB93E00E94EA13892B49F4DA
:100FB00066EB73E0CE010E94690781E0DF91CF917B
:100FC000089580E0FBCF0F931F93CF938C018BE4A8
:100FD00091E00E947107E0EAF3E088E08487C6E0D0
:100FE000C58748E050E068E670E08EEA93E00E9432
:100FF0004213E0ECF3E0DF011D92CA95E9F768E9DE
:1010000073E086EB93E00E946907B80186EC93E0F9
:101010000E947C0764E876E08CEB93E00E947C07FA
:101020008AE290E0CF911F910F910C940305FF92FB
:101030000F931F93CF93DF93182F092FEB01F42EFB
:10104000CB010E94F300BE01882309F446C086E567
:1010500093E00E94BA078881807F803E91F088816A
:101060009981AA81BB818F3F9F4FAF4FBF4F49F0FE
:1010700044E050E0BE0181E993E00E94EA13892B2D
:1010800031F46BE471E080EA93E00E94690788E044
:101090008093AC031092AD0349E050E06CE071E046
:1010A0008EEA93E00E9442131092B00381E1809394
:1010B000B7031092C403F092C5030093C2031093C8
:1010C000C3031092C6031092C8031092C903DF91A4
:1010D000CF911F910F91FF9008958CE593E0B9CFC8
:1010E0001F93CF93DF93EC01E0EAF3E086E191E018
:1010F000DF019C011D9221503040E1F78091970360
:101100006BE471E0833011F46EE373E043E450E08C
:1011100084E490E00E9417086BE471E080EA93E0B9
:101120000E94690781E08093CA038093CB0386E025
:101130008093CC038091430390914403A091450395
:10114000B09146038093CE039093CF03A093D00336
:10115000B093D10310919703133031F464E876E033
:1011600086ED93E00E947C0768E973E086EE93E0E9
:101170000E94690786EB94E090933D0380933C03C3
:1011800060E071E086E00E94D30583E0111101C0A8
:1011900081E00E94C6058DE30E94C60587E00E949B
:1011A000C60581E00E94C60568E973E086E00E94FA
:1011B000D3058CE00E94C6058AE00E94C60568E05F
:1011C00071E08AE00E94D3052097A9F082E30E9493
:1011D000C60584E00E94C605BE0184E00E94D305D6
:1011E00086E30E94C60584E00E94C6056EE373E0B4
:1011F00084E00E94D30587E30E94C60583E00E9435
:10120000C60581E00E94C60583E00E94C60586E00F
:101210000E94C6058FEF0E94C60580913C03909105
:101220003D038A5C9340DF91CF911F910C944C0554
:10123000CF92DF92EF92FF920F931F93CF93DF93A2
:1012400000D000D0CDB7DEB78C01809197038230FB
:10125000C9F098F4882309F49CC0813009F4B8C01F
:101260000F900F900F900F90DF91CF911F910F91E2
:10127000FF90EF90DF90CF900895833009F454C031
:10128000843071F765E0C8010E948605882309F45F
:10129000C7C080914203811108C088E30E9489047D
:1012A000682F6E7F88E30E946F046AED73E084E824
:1012B00096E00E947C07EAEBF4E000561C4F7F01A9
:1012C00022E0E20EF11CD1808081863009F4FAC060
:1012D00008F0BDC0813009F4EBC0833009F4EEC0E2
:1012E000F701ED0DF11DE017F10748F30E94280307
:1012F00060934B0370934C0380934D0390934E0384
:1013000080916606882361F01092960310929503EF
:1013100081E080935C0666E676E0CB010E947C0764
:1013200083E0809397039CCFC0904F03D0905003ED
:10133000E0905103F09052032FEFC216D206E2065E
:10134000F20609F48DCF0E94280300914B031091FF
:101350004C0320914D0330914E03601B710B820BA7
:10136000930B6C157D058E059F0508F479CF84E8F5
:1013700096E00E94700884E0809397030E942803FF
:1013800060934703709348038093490390934A0303
:1013900067CF0E94280360934303709344038093B4
:1013A000450390934603E4E8F6E084E0DF011D92F4
:1013B0008A95E9F790E080E00E94700888E30E9437
:1013C0008904682F616088E30E946F0481E0D4CFB4
:1013D00062E0C8010E948605882311F16AED73E07E
:1013E000CE0101960E947C07EAEBF4E000561C4F08
:1013F000BF016E5F7F4F81819081963351F48EE300
:1014000093E00E947C07CE0101960E94700882E062
:10141000B3CFFB01E80FF11DE017F10748F3F3CF5D
:101420000E9428030091470310914803209149032B
:1014300030914A03601B710B820B930B6131774231
:101440008105910508F40CCF1092970309CF8A33D8
:1014500031F08F3F09F44ACF833309F041CF109226
:101460004F03109250031092510310925203F70150
:10147000C701049620E030E0A9016191542F432F69
:10148000322F2227260F311D411D511D8E179F0718
:10149000A1F72F3F8FEF380748075807B9F420937B
:1014A0004F0330935003409351035093520318CF8E
:1014B000B70180E896E00E947C0712CFB70186E66C
:1014C00096E0F9CFB70182E696E0F5CFA8EEB3E05B
:1014D0000E94CA1360934F0370935003809351038B
:1014E00090935203FDCEFF920F931F93CF93DF9300
:1014F0008C0180919E03882319F0C8010E9418096D
:101500000115110509F0D4C080915C06857099F031
:101510008091950390919603892B69F40E946E0542
:10152000882349F086E696E00E94E30780915C06F6
:10153000886080935C068091950390919603019654
:10154000909396038093950380916B06813009F008
:1015500078C080915C0681FF74C082E080936B0646
:10156000809107018F5F8093070110916C060091B5
:101570006D06C0916A0690E2C99FE00111248F7147
:10158000C82B8EE596E00E94F3006EE576E0882396
:1015900009F47BC086E593E00E94BA07D8E0D093B7
:1015A000AC031092AD0349E050E06CE071E08EEACC
:1015B00093E00E9442138CE28093B10386E0809313
:1015C000B7030E94CD030093C4031093C5038BE0BF
:1015D0008093C203C093C303E6ECF3E0DF011D92E6
:1015E000DA95E9F7809106018093C8038D5F8093B7
:1015F000060180E68093CE0382E08093CF0393E0E0
:101600009093D0031092D1031092D2031092D3037F
:101610001092D4031092D5038093D60394E0909354
:10162000D7038093D80386E28093D90322E040E277
:1016300050E06AE182E30E947A038AE390E00E942C
:10164000030582E696E00E94F300882379F08091FA
:101650005D0681110BC080916403811107C082E691
:1016600096E00E94E30781E0809364038EE596E0B4
:101670000E94F30081110CC0D0E0C0E0CE01DF91E8
:10168000CF911F910F91FF9008958CE593E084CF47
:10169000809163038111F0CF809162038111ECCFBF
:1016A0008EE596E00E94E30781E080936203E4CF39
:1016B0000932110508F38091AC038830E9F6809176
:1016C000AD03863009F09CC144E050E064E876E068
:1016D00086EC93E00E94EA13892B71F68091B503A2
:1016E000813029F586EA93E00E9471071092B403D5
:1016F00082E08093B50366EB73E080EC93E00E9498
:10170000690768E973E086EB93E00E9469076CEB78
:1017100073E086EC93E00E947C0764E876E08CEB53
:1017200093E00E947C078AE290E00E94030580918A
:101730005C0683FF0DC0C091B503C23049F46CE56F
:1017400073E086E696E00E94CC078111C0935C06A8
:1017500080915D06811111C080916403882369F036
:1017600066E573E082E696E00E94CC07882329F0C4
:1017700081E080935D061092640380916303811180
:101780007BCF80916203882309F476CF66E573E00E
:101790008EE596E00E94CC07882309F46DCF81E0A6
:1017A000809363031092620367CF0633110508F438
:1017B00063CF863009F060CF8091C4038B3009F08D
:1017C000B8C044E050E06EE576E08AEB93E00E941A
:1017D000EA13892B09F050CFF090CF03F2FE15C029
:1017E000E0917006F0917106309759F08091C50331
:1017F00030E020E050E040E063E08295869587701D
:10180000099585E080936B0637CF0E943403EC0185
:1018100080916B06823009F045C09F2D90718F2D0D
:101820008271823189F560E090E080E00E94960745
:1018300088E18093CF03E0916E06F0916F06D0E0CF
:10184000C0E0309739F08091C30382958695877008
:101850000995EC0183E080936B06CE018896909306
:10186000B0038093B1030E94CD031092D203109273
:10187000D303AE01445E5F4F22E06AE182E30E943F
:101880007A03CE01C69601C181E080936B06911167
:1018900006C0CE01019664E00E949607EDCE90E06E
:1018A00080E0F9CF833099F52097A1F1E09170069F
:1018B000F0917106309771F18091CE0390E024E0B1
:1018C000959587952A95E1F7880F991F880F991F9D
:1018D0008296A801485051098417950708F4AC0175
:1018E000CE01840F951F9801241B350B081719078B
:1018F00008F09E018091C50360E08295869587700F
:10190000099569E0CE010E94960786E07BCF85307D
:1019100009F4B2CEF0FE07C0833009F4ADCE69E021
:10192000CE010196F0CF209709F4A6CE60E0CE015B
:10193000B3CF8111A1CE8091C503803509F09CCE33
:10194000F090CF03F1FE39C01092B0038CE2809387
:10195000B1030E94840782E18093CF0360E081E0BD
:1019600090E00E944F031092C6031092C70380912B
:1019700006018093C8031092C9038D5F809306010E
:1019800082E08093D60384E08093D70385E0809340
:10199000D8031092D90390E69093CE038093D0039E
:1019A00088E78093D10322E040E250E06AE182E3DD
:1019B0000E947A038AE390E068C0F4FE5DCE0E9444
:1019C0003403EC01892BA1F0C091CE03D0E084E078
:1019D000D595C7958A95E1F7CC0FDD1FCC0FDD1F9C
:1019E000A296085011090C171D0708F047CE44CEE7
:1019F000F0FE42CE60E090E080E00E9496073ECE8E
:101A00000932110509F438CE811136CE8091AE032A
:101A1000853409F031CE44E050E064E876E08EEBA6
:101A200093E00E94EA13892BA9F044E050E061E9B9
:101A300073E08EEB93E00E94EA13892B59F044E0A7
:101A400050E06BE471E08EEB93E00E94EA13892B87
:101A500009F012CE8091B703813009F0A6CE8091B3
:101A6000C203883009F008CE0E9484071092C20396
:101A70008091C403883F28F09091C5039F5F9093A5
:101A8000C503885F8093C403C8010E940305F4CD99
:101A90000F931F93CF93DF9389019091720698174C
:101AA00081F0E0917306F091740650E040E070E040
:101AB00060E084E0099580E0DF91CF911F910F9164
:101AC00008956111F8CF2D303105A8F3C091730648
:101AD000D0917406209779F3BA0167557C4F43E0A3
:101AE00050E08BE691E00E9410146091CE0370E00C
:101AF00024E0759567952A95E1F7660F771F660FC5
:101B0000771F6E5D7F4F21E0892B09F420E0A8014B
:101B1000822FFE01CFCFAF92BF92CF92DF92EF9292
:101B2000FF920F931F93CF93DF93CDB7DEB7ED8472
:101B3000FE84CF84D8888E010F5E1F4FC6010196A8
:101B4000F6012491222309F4D1C0243279F0D7017F
:101B50001696ED91FC911797AF014F5F5F4F179667
:101B60005C934E93169720836C01E8CFB2E0CB0EC6
:101B7000D11CFC018491863409F481C0A0F4843422
:101B800009F44CC0853409F494C0D7011696ED9140
:101B9000FC9117979F012F5F3F4F17963C932E9311
:101BA00016978083CBCFD70116964D915C918C34DC
:101BB00009F44DC0833509F457C0883431F7B801B2
:101BC0006E5F7F4FF8019081292F092E000C330B97
:101BD00084E0359527958A95E1F72F709F709A30AC
:101BE0000CF0995F905D2A300CF0295FFA01319674
:101BF000D7011796FC93EE931697205DFA01208388
:101C00001696ED91FC9117979F012F5F3F4F179606
:101C10003C932E93169790838B0190CF5801B2E09E
:101C2000AB0EB11CF70166817781D8018D919C9133
:101C30000E94E405F70186819781DC010D90002068
:101C4000E9F7CD01019797838683850177CF580106
:101C5000F4E0AF0EB11CD8016D917D918D919C91F6
:101C60002AE00E944B13E6CF5801B2E0AB0EB11C44
:101C7000F80160817181CA010E940914DBCFF8016B
:101C80000190F081E02D0E5F1F4F849131968823E3
:101C900009F454CFD70116964D915C9117979A018C
:101CA0002F5F3F4F17963C932E931697DA018C9334
:101CB000ECCFF801808191810E5F1F4F5C01BFEF77
:101CC000AB1ABB0A0E948C13882309F437CFD701C3
:101CD0001696ED91FC9117979F012F5F3F4F179636
:101CE0003C932E9316978083C501E8CFDF91CF9167
:101CF0001F910F91FF90EF90DF90CF90BF90AF902A
:101D000008950F931F93CF93DF93CDB7DEB7289736
:101D10000FB6F894DEBF0FBECDBF1C821B8223E43A
:101D200031E03A83298326ED33E03E832D833887E3
:101D30002F839091720698132EC0A0917506B091D2
:101D400076061091790600917A0660917D06709171
:101D50007E068091770690917806AE014F5F5F4FC7
:101D6000109751F59F938F930F931F9380917C064B
:101D70008F9380917B068F937F936F9388EE90E093
:101D80009F938F935F934F930E948B0D0FB6F894A0
:101D9000DEBF0FBECDBF8F8198852D813E81821B16
:101DA000930B28960FB6F894DEBF0FBECDBFDF9120
:101DB000CF911F910F910895FD0101900020E9F747
:101DC0003197EA1BFB0B23E631E0009721F425E66F
:101DD00031E080E790E0BF93AF93FF93EF933F93A1
:101DE0002F939F938F930F931F937F936F9381E70D
:101DF00090E09F938F935F934F930E948B0DC6CF7C
:101E00001F920F920FB60F9211242F933F934F936F
:101E10005F936F937F938F939F93AF93BF93EF9352
:101E2000FF938AE097E00E949101FF91EF91BF91AB
:101E3000AF919F918F917F916F915F914F913F9162
:101E40002F910F900FBE0F901F9018951F920F9219
:101E50000FB60F9211242F938F939F93EF93FF93BD
:101E6000E0911A07F0911B078081E0912007F09123
:101E7000210782FD1BC09081809123078F5F8F73A4
:101E800020912407821741F0E0912307F0E0E65FFC
:101E9000F84F958F80932307FF91EF919F918F913A
:101EA0002F910F900FBE0F901F9018958081F4CF47
:101EB0001F920F920FB60F9211242F933F938F937F
:101EC0009F93AF93BF938091660390916703A09116
:101ED0006803B09169033091650323E0230F2D3728
:101EE00058F50196A11DB11D2093650380936603EB
:101EF00090936703A0936803B093690380916A038A
:101F000090916B03A0916C03B0916D030196A11D9C
:101F1000B11D80936A0390936B03A0936C03B093FD
:101F20006D03BF91AF919F918F913F912F910F9032
:101F30000FBE0F901F90189526E8230F0296A11D43
:101F4000B11DD2CFEAE0F7E01382128288EE93E06F
:101F5000A0E0B0E084839583A683B78385E591E014
:101F60009183808385EC90E09587848784EC90E072
:101F70009787868780EC90E0918B808B81EC90E056
:101F8000938B828B82EC90E0958B848B86EC90E037
:101F9000978B868B118E128E138E148E08957894E3
:101FA00084B5826084BD84B5816084BD85B582605E
:101FB00085BD85B5816085BD80916E00816080930F
:101FC0006E00109281008091810082608093810078
:101FD0008091810081608093810080918000816088
:101FE000809380008091B10084608093B1008091E3
:101FF000B00081608093B00080917A00846080930B
:102000007A0080917A00826080937A0080917A00D1
:10201000816080937A0080917A00806880937A0052
:102020001092C100E0911A07F0911B0782E08083B3
:10203000E0911607F09117071082E0911807F091D0
:1020400019078FEC808310922207E0911E07F09110
:102050001F0786E08083E0911C07F0911D078081B7
:1020600080618083E0911C07F0911D07808188606A
:102070008083E0911C07F0911D0780818068808338
:10208000E0911C07F0911D0780818F7D808360E0C7
:1020900083E00E94A0028FE691E00E940F0610925A
:1020A0009E0387E390E0C12CD12C7601C394009766
:1020B000C1F0FC01A3E0F595E795AA95E1F7EF588B
:1020C000FC4F282F2770B701A60104C0440F551FED
:1020D000661F771F2A95D2F72081242B2083019732
:1020E000E6CF68E271E088E993E00E9469078CEB33
:1020F00092E09093700380936F030CB406FC25C0AC
:1021000061E08AE00E94A00261E08AE00E9472021F
:1021100061E08BE00E94A00261E08DE00E94A002DD
:1021200060E08CE00E94A00261E08BE00E947202FD
:1021300060E08BE00E94720260E08DE00E9472021B
:1021400080E58CBD8DB581608DBD8AE080936E0386
:1021500061E00E94A0020E94F1034FEF60E08FEF68
:102160000E943E0462E070E080E090E00E94F6028F
:102170000E94F8038DE10E94EC0380E00E94EC03D2
:10218000CEB50E94F103CC2399F370E060E088E0C3
:102190000E947C0470E060E08CE00E947C046FEFA1
:1021A0007BE08AE00E947C0460E07CE084E00E94A6
:1021B0007C046FEF71E186E00E947C0461EB88E3B0
:1021C0000E946F046FE370E388E20E947C0469EF71
:1021D00077EF80E30E947C046DE080EC0E946F0446
:1021E00060E081EC0E946F0442E362EC80E80E94B0
:1021F0003E0462E17CE086EC0E947C0462E184ECB7
:102200000E946F046CED75E08AEC0E947C04609182
:10221000980384EE0E946F046091990385EE0E94FA
:102220006F0460919A0382EE0E946F0460919B0399
:1022300083EE0E946F0460919C0380EE0E946F0405
:1022400060919D0381EE0E946F0460E184ED0E9425
:102250006F0460E071E086ED0E947C048AEE0E94CB
:10226000890480FDFBCF8FE10E94530440EC6BE1B9
:1022700080E80E943E0444E06FE180E80E943E0452
:1022800082E70E948904863008F08F5F811104C0C4
:1022900080E891E00E940F06FF24F394E8E8CE2E38
:1022A000E6E0DE2EF0929E0380919D03282F30E021
:1022B00074E0359527957A95E1F790E32A300CF094
:1022C00097E3920F909310018F7090E38A300CF097
:1022D00097E3890F80931101109297030E942803BE
:1022E0008B01E090970383E0E81641F00E942803F9
:1022F000601B710B60367A4E08F44FC0E4E8F6E0DC
:1023000020E836E0A1E9B3E09191E90189919E01CD
:102310008095892B8D93CE16DF06B1F71092960328
:1023200010929503D3E0ED1242C064E876E081EEAE
:1023300091E00E94BC0660E876E089EE91E00E94A0
:10234000BC0666E676E083EF91E00E94BC0662E69A
:1023500076E08BEF91E00E94BC060E942803EB011F
:102360000E946E05882341F111E082E696E00E940A
:10237000F300882309F4B9C080915D06812709F430
:10238000B9C00E94A1040E94730A0E9428036C1B1A
:102390007D0B6033754748F316C00E946E05882395
:1023A00009F49FCF0E94A1040E9418099ACF85EAE0
:1023B00091E00E940F0676CF0E9428036C1B7D0BD4
:1023C0006033754768F280E392E00E940F066EE585
:1023D00076E084E092E00E94BC0621E8422E2EE0E6
:1023E000522E3EE8632E31E0732E4EE2842E41E001
:1023F000942EC1E8D1E00FE611E051E2E52E57E05E
:10240000F52E68E4C62E6DE0D62E3324339480E595
:10241000282E90E0A92E90E0B92E0E94A1040E94DF
:10242000730A83E00E9449020197F1F580917F06CB
:1024300081113AC08DE092E00E940F0630927F0633
:1024400070927E0660927D0690927C0680927B065A
:10245000D0937A06C0937906109378060093770696
:102460001092760610927506F0927406E09273064A
:10247000D0927106C092700650926F0640926E061E
:1024800010926D0620926C0630926B0680916A065F
:102490008F5F877080936A06809372066AE070E0AF
:1024A00080E090E00E94F60283E00E944902892BBE
:1024B00081F480917F06882361F08FE192E00E9491
:1024C0000F0610927F0664EF71E080E090E00E94BA
:1024D000F602A114B10409F4A0CF0E947D01882363
:1024E00009F493CF0E94000090CF80915C068695FE
:1024F000817044CFEEE5F6E084E0EF0119928A9511
:10250000E9F780919F03C1E0C80FC0939F038091BA
:102510006206811108C044E050E068E070E082E6A5
:1025200096E00E94F7138C2F90E045E350E062E6BE
:1025300076E0906E0E941708EAECF3E08CE0DF0191
:102540001D928A95E9F7A6EDB3E0E1E8F1E080E0BD
:10255000249131962E3241F0222331F08F5FED012C
:10256000C80FD11D2883F4CF8C9390E00196A80F5B
:10257000B91F2111ECCF1C9211961C92119781E08A
:1025800012968C93129713961C92139714968C9311
:10259000149720EA33E0A21BA552A093CA0390919E
:1025A0009F039093CB038093CC038093CF038A2F18
:1025B00090E00E944C050E942803EB0180915E068A
:1025C000811105CF0E9428036C1B7D0B603375477A
:1025D00008F0F9CE0E94A1048C01009779F30E94C3
:1025E000730A892B59F70634110540F38091C30310
:1025F000853321F78091C403803E01F78091C503A4
:1026000090919F038913DACF9091CB038913D6CF92
:102610008091CD038F7009F0D6CEE091CA03F0E02F
:10262000E653FC4F00561C4F8081807CDF011296E0
:10263000811109C0DF011196A017B10720F4818133
:10264000811119C01196CD010E960817190708F4CB
:10265000B5CF1996EC91199711968C9111978130FD
:1026600061F4E43051F4BD01665F7F4F8EE596E082
:102670000E947C07A3CFFD01DDCFF0E03A96EA0F80
:10268000FB1FD2CFFB01DC0102C005900D9241502F
:102690005040D8F70895BB272A3051F4992342F4CB
:1026A000BDE290958095709561957F4F8F4F9F4FBC
:1026B0000C945B13BB27FA01A62F621771058105E5
:1026C0009105330B30FB66F0AA27660F771F881F32
:1026D000991FAA1FA21710F0A21B63953850A9F7E3
:1026E000A05DAA3308F0A95DA19336F7B111B193AB
:1026F0001082CA010C947C13DC01FC01672F7191DC
:102700007723E1F7329704C07C916D9370836291D7
:10271000AE17BF07C8F30895F999FECF92BD81BDEA
:10272000F89A992780B50895AA1BBB1B51E107C0F1
:10273000AA1FBB1FA617B70710F0A61BB70B881F51
:10274000991F5A95A9F780959095BC01CD010895E0
:10275000A1E21A2EAA1BBB1BFD010DC0AA1FBB1FA5
:10276000EE1FFF1FA217B307E407F50720F0A21B17
:10277000B30BE40BF50B661F771F881F991F1A9484
:1027800069F760957095809590959B01AC01BD01AE
:10279000CF0108950E94DB13A59F900DB49F900D6B
:1027A000A49F800D911D11240895EE0FFF1F059029
:1027B000F491E02D0994A29FB001B39FC001A39FA3
:1027C000700D811D1124911DB29F700D811D11246A
:1027D000911D0895FB01DC0104C08D9101908019C9
:1027E00021F441505040C8F7881B990B0895DC0133
:1027F00001C06D9341505040E0F70895FC01819174
:10280000861721F08823D9F7992708953197CF01AA
:102810000895FB01DC0101900D920020E1F708957D
:10282000FB01DC014150504030F08D910190801946
:1028300019F40020B9F7881B990B0895FB01DC01FE
:102840004150504048F001900D920020C9F701C05E
:102850001D9241505040E0F70895AEE0B0E0E3E350
:10286000F4E10C94DC160D891E8986E08C831A83B2
:1028700009838FEF9FE79E838D83AE01475E5F4F95
:102880006F89788DCE0101960E9450142F81388572
:10289000020F131FF80110822E96E4E00C94F81634
:1028A000ABE0B0E0E6E5F4E10C94CE167C013B0130
:1028B0008A01FC0117821682838181FFC8C1CE0183
:1028C00001965C01F7019381F30193FD859193FFDC
:1028D00081913F01882309F453C1853239F493FD76
:1028E000859193FF81913F01853229F4B70190E0F2
:1028F0000E944016E7CF912C212C312CFFE1F315DB
:1029000038F08B3211F190F4803209F1833229F1E1
:1029100037FC3CC020ED280F2A3050F536FE20C091
:102920008AE0989E200D1124922E06C08D3291F0DF
:10293000803371F7689430F8F30193FD859193FF2C
:1029400081913F018111DACF21C0689431F86894F8
:1029500032F8F2CF689433F8EFCF689434F8ECCFC4
:10296000EAE02E9E200D1124222E689435F8E4CF43
:102970008E3229F436FC04C1689436F8DDCF8C36EB
:1029800019F4689437F8D8CF8836B1F2982F9F7D24
:1029900095549330E0F08336A1F18337C1F183354C
:1029A00009F063C02801F2E04F0E511CF801C0800D
:1029B000D180692D70E036FC02C06FEF7FEFC60159
:1029C0000E942A164C01689437F882010AC00C5FF5
:1029D0001F4FFFE3F98388248394912C6501E894C9
:1029E00037F833FE2DC0522C8114910471F5552017
:1029F00009F468CFB70180E290E00E9440165A9433
:102A0000F6CFF801808189830E5F1F4FE4CF280144
:102A1000F2E04F0E511CF801C080D180692D70E0AA
:102A200036FC02C06FEF7FEFC6010E9435164C01E5
:102A30008201D5CFB70180E290E00E9440162A942F
:102A40002814190409F0B0F7CECFF60137FC8591B0
:102A500037FE81916F01B70190E00E94401651103E
:102A60005A94F1E08F1A9108BFCF843619F0893655
:102A700009F077C0F80137FE6BC0608171818281F7
:102A800093810C5F1F4FF32DFF763F2E97FF09C0F8
:102A900090958095709561957F4F8F4F9F4F68946B
:102AA00037F82AE030E0A5010E947016C82ECA1837
:102AB0008C2C432C36FE0CC0E89440F8C91440F42A
:102AC00034FE05C032FC03C0F32DFE7E4F2E892C50
:102AD00044FE95C0FE01EC0DF11D8081803309F0AC
:102AE00087C0242D297E422E842D8870582E43FCC9
:102AF00095C040FE8FC09C2C821418F42C0C922C94
:102B0000981844FE91C0B70180E390E00E944016FF
:102B100042FE09C088E790E041FE02C088E590E0EF
:102B2000B7010E944016C91408F48AC0CA94D12C77
:102B30009FEFC91AD90ACA0CDB1CF60182916F01FA
:102B4000B70190E00E944016AC14BD04B1F74FCF1E
:102B500060817181072E000C880B990B0E5F1F4F4F
:102B600092CFD32CE894D4F82AE030E0853739F1BD
:102B7000232D297FD22E8F3601F148F48835A9F014
:102B8000F701868197812B96E2E10C94EA16803753
:102B900049F08837A9F7D4FE02C06894D2F820E142
:102BA00030E00DC06894D4F8F6CF34FE03C0822F15
:102BB0008660D82E20E132E002C028E030E0F80143
:102BC000D7FE0FC060817181828193810C5F1F4F9E
:102BD000A5010E947016C82ECA183D2CE89437F83B
:102BE00067CF6081718190E080E00E5F1F4FF0CF72
:102BF00042FC02C0839478CF8394839475CF842D54
:102C0000867809F471CFF6CFB70180E290E00E9498
:102C1000401683948214C0F3512C73CF522C581851
:102C2000821408F46ECFF8CF842D867809F47BCF18
:102C30008BE241FE80E247FC8DE2B70190E071CF6C
:102C4000B70180E390E00E9440169A946CCF8FEF1A
:102C50009FEF99CFFC010590615070400110D8F7AB
:102C6000809590958E0F9F1F0895FC0161507040D4
:102C700001900110D8F7809590958E0F9F1F0895B1
:102C80000F931F93CF93DF93182F092FEB018B81A5
:102C900081FD09C01FEF0FEF812F902FDF91CF91A2
:102CA0001F910F91089582FF14C02E813F818C8166
:102CB0009D81281739073CF4E881F981CF010196FD
:102CC0009983888310838E819F8101969F838E8351
:102CD000E3CFE885F985812F0995892BA1F3DACF18
:102CE000FA01AA27283051F1203181F1E8946F933D
:102CF0006E7F6E5F7F4F8F4F9F4FAF4FB1E03ED0E3
:102D0000B4E03CD0670F781F891F9A1FA11D680F80
:102D1000791F8A1F911DA11D6A0F711D811D911DB3
:102D2000A11D20D009F468943F912AE0269F112428
:102D30003019305D3193DEF6CF010895462F47708C
:102D4000405D4193B3E00FD0C9F7F6CF462F4F70E7
:102D5000405D4A3318F0495D31FD4052419302D045
:102D6000A9F7EACFB4E0A6959795879577956795EB
:102D7000BA95C9F700976105710508959B01AC01EB
:102D80000A2E06945795479537952795BA95C9F712
:102D9000620F731F841F951FA01D08952F923F92ED
:102DA0004F925F926F927F928F929F92AF92BF925B
:102DB000CF92DF92EF92FF920F931F93CF93DF9307
:102DC000CDB7DEB7CA1BDB0B0FB6F894DEBF0FBE64
:102DD000CDBF09942A88398848885F846E847D84B1
:102DE0008C849B84AA84B984C884DF80EE80FD80B3
:102DF0000C811B81AA81B981CE0FD11D0FB6F89429
:0E2E0000DEBF0FBECDBFED010895F894FFCFE9
:102E0E006382536335010A0141726475696E6F2DD9
:102E1E003030000000000000000000000000000044
:102E2E000000000000000000249946AD30316265BC
:102E3E00656631333337626565663133333700008B
:102E4E00000000DC03130102060106FFFFFFFFFF77
:102E5E00FF00000000B30113014001000271014F99
:102E6E000163010D0A007B25737D00323030000AAC
:102E7E005B67657444484350616E64444E535D0015
:102E8E004661696C656420746F206163636573735A
:102E9E002045746865726E657420636F6E74726F10
:102EAE006C6C6572004572726F723A2044484350E2
:102EBE00206661696C65642E2043616E27742067FD
:102ECE00657420616E20495020616464726573736D
:102EDE002C206C657427732072657472792E2E2ED9
:102EEE00004D792049503A20004E65746D61736B28
:102EFE003A200047572049503A2000444E5320496B
:102F0E00503A20005365727665723A200070696EF1
:102F1E0044657669643120697320484947480070DA
:102F2E00696E446576696431206973204C4F570091
:0C2F3E00444E53206661696C656400001D
:107E0000112484B714BE81FFF0D085E080938100F7
:107E100082E08093C00088E18093C10086E0809377
:107E2000C20080E18093C4008EE0C9D0259A86E02C
:107E300020E33CEF91E0309385002093840096BBD3
:107E4000B09BFECF1D9AA8958150A9F7CC24DD24C4
:107E500088248394B5E0AB2EA1E19A2EF3E0BF2EE7
:107E6000A2D0813461F49FD0082FAFD0023811F036
:107E7000013811F484E001C083E08DD089C08234E0
:107E800011F484E103C0853419F485E0A6D080C0E4
:107E9000853579F488D0E82EFF2485D0082F10E0AE
:107EA000102F00270E291F29000F111F8ED06801E7
:107EB0006FC0863521F484E090D080E0DECF843638
:107EC00009F040C070D06FD0082F6DD080E0C81688
:107ED00080E7D80618F4F601B7BEE895C0E0D1E017
:107EE00062D089930C17E1F7F0E0CF16F0E7DF06D8
:107EF00018F0F601B7BEE89568D007B600FCFDCFD4
:107F0000A601A0E0B1E02C9130E011968C91119780
:107F100090E0982F8827822B932B1296FA010C0160
:107F200087BEE89511244E5F5F4FF1E0A038BF0790
:107F300051F7F601A7BEE89507B600FCFDCF97BE46
:107F4000E89526C08437B1F42ED02DD0F82E2BD052
:107F50003CD0F601EF2C8F010F5F1F4F84911BD097
:107F6000EA94F801C1F70894C11CD11CFA94CF0C13
:107F7000D11C0EC0853739F428D08EE10CD085E9AC
:107F80000AD08FE07ACF813511F488E018D01DD067
:107F900080E101D065CF982F8091C00085FFFCCF94
:107FA0009093C60008958091C00087FFFCCF809118
:107FB000C00084FD01C0A8958091C6000895E0E648
:107FC000F0E098E1908380830895EDDF803219F02E
:107FD00088E0F5DFFFCF84E1DECF1F93182FE3DFCA
:107FE0001150E9F7F2DF1F91089580E0E8DFEE27F6
:047FF000FF270994CA
:027FFE00040479
:0400000300007E007B
:00000001FF
